{
	"_format": "hh-sol-artifact-1",
	"contractName": "Wait",
	"sourceName": "contracts/Wait.sol",
	"abi": [
		{
			"inputs": [],
			"stateMutability": "nonpayable",
			"type": "constructor"
		},
		{
			"anonymous": false,
			"inputs": [
				{
					"indexed": true,
					"internalType": "address",
					"name": "owner",
					"type": "address"
				},
				{
					"indexed": true,
					"internalType": "address",
					"name": "spender",
					"type": "address"
				},
				{
					"indexed": false,
					"internalType": "uint256",
					"name": "value",
					"type": "uint256"
				}
			],
			"name": "Approval",
			"type": "event"
		},
		{
			"anonymous": false,
			"inputs": [
				{
					"indexed": true,
					"internalType": "bytes32",
					"name": "id",
					"type": "bytes32"
				}
			],
			"name": "ChainlinkCancelled",
			"type": "event"
		},
		{
			"anonymous": false,
			"inputs": [
				{
					"indexed": true,
					"internalType": "bytes32",
					"name": "id",
					"type": "bytes32"
				}
			],
			"name": "ChainlinkFulfilled",
			"type": "event"
		},
		{
			"anonymous": false,
			"inputs": [
				{
					"indexed": true,
					"internalType": "bytes32",
					"name": "id",
					"type": "bytes32"
				}
			],
			"name": "ChainlinkRequested",
			"type": "event"
		},
		{
			"anonymous": false,
			"inputs": [
				{
					"indexed": true,
					"internalType": "address",
					"name": "from",
					"type": "address"
				},
				{
					"indexed": true,
					"internalType": "address",
					"name": "to",
					"type": "address"
				}
			],
			"name": "OwnershipTransferRequested",
			"type": "event"
		},
		{
			"anonymous": false,
			"inputs": [
				{
					"indexed": true,
					"internalType": "address",
					"name": "from",
					"type": "address"
				},
				{
					"indexed": true,
					"internalType": "address",
					"name": "to",
					"type": "address"
				}
			],
			"name": "OwnershipTransferred",
			"type": "event"
		},
		{
			"anonymous": false,
			"inputs": [
				{
					"indexed": false,
					"internalType": "address",
					"name": "_user",
					"type": "address"
				}
			],
			"name": "Reload",
			"type": "event"
		},
		{
			"anonymous": false,
			"inputs": [
				{
					"indexed": true,
					"internalType": "address",
					"name": "from",
					"type": "address"
				},
				{
					"indexed": true,
					"internalType": "address",
					"name": "to",
					"type": "address"
				},
				{
					"indexed": false,
					"internalType": "uint256",
					"name": "value",
					"type": "uint256"
				}
			],
			"name": "Transfer",
			"type": "event"
		},
		{
			"inputs": [
				{
					"internalType": "uint256",
					"name": "",
					"type": "uint256"
				},
				{
					"internalType": "address",
					"name": "",
					"type": "address"
				}
			],
			"name": "Claimed",
			"outputs": [
				{
					"internalType": "bool",
					"name": "",
					"type": "bool"
				}
			],
			"stateMutability": "view",
			"type": "function"
		},
		{
			"inputs": [
				{
					"internalType": "uint256",
					"name": "",
					"type": "uint256"
				},
				{
					"internalType": "address",
					"name": "",
					"type": "address"
				}
			],
			"name": "ClaimedAmount",
			"outputs": [
				{
					"internalType": "uint256",
					"name": "",
					"type": "uint256"
				}
			],
			"stateMutability": "view",
			"type": "function"
		},
		{
			"inputs": [
				{
					"internalType": "uint256",
					"name": "",
					"type": "uint256"
				},
				{
					"internalType": "address",
					"name": "",
					"type": "address"
				}
			],
			"name": "InData",
			"outputs": [
				{
					"internalType": "bool",
					"name": "",
					"type": "bool"
				}
			],
			"stateMutability": "view",
			"type": "function"
		},
		{
			"inputs": [],
			"name": "acceptOwnership",
			"outputs": [],
			"stateMutability": "nonpayable",
			"type": "function"
		},
		{
			"inputs": [
				{
					"internalType": "address",
					"name": "owner",
					"type": "address"
				},
				{
					"internalType": "address",
					"name": "spender",
					"type": "address"
				}
			],
			"name": "allowance",
			"outputs": [
				{
					"internalType": "uint256",
					"name": "",
					"type": "uint256"
				}
			],
			"stateMutability": "view",
			"type": "function"
		},
		{
			"inputs": [
				{
					"internalType": "address",
					"name": "spender",
					"type": "address"
				},
				{
					"internalType": "uint256",
					"name": "amount",
					"type": "uint256"
				}
			],
			"name": "approve",
			"outputs": [
				{
					"internalType": "bool",
					"name": "",
					"type": "bool"
				}
			],
			"stateMutability": "nonpayable",
			"type": "function"
		},
		{
			"inputs": [
				{
					"internalType": "address",
					"name": "account",
					"type": "address"
				}
			],
			"name": "balanceOf",
			"outputs": [
				{
					"internalType": "uint256",
					"name": "",
					"type": "uint256"
				}
			],
			"stateMutability": "view",
			"type": "function"
		},
		{
			"inputs": [
				{
					"internalType": "uint256",
					"name": "amount",
					"type": "uint256"
				}
			],
			"name": "burn",
			"outputs": [],
			"stateMutability": "nonpayable",
			"type": "function"
		},
		{
			"inputs": [
				{
					"internalType": "address",
					"name": "account",
					"type": "address"
				},
				{
					"internalType": "uint256",
					"name": "amount",
					"type": "uint256"
				}
			],
			"name": "burnFrom",
			"outputs": [],
			"stateMutability": "nonpayable",
			"type": "function"
		},
		{
			"inputs": [
				{
					"internalType": "string",
					"name": "_address",
					"type": "string"
				}
			],
			"name": "checkDatabase",
			"outputs": [
				{
					"internalType": "bytes32",
					"name": "requestId",
					"type": "bytes32"
				}
			],
			"stateMutability": "nonpayable",
			"type": "function"
		},
		{
			"inputs": [
				{
					"internalType": "address",
					"name": "",
					"type": "address"
				}
			],
			"name": "checked",
			"outputs": [
				{
					"internalType": "bool",
					"name": "",
					"type": "bool"
				}
			],
			"stateMutability": "view",
			"type": "function"
		},
		{
			"inputs": [],
			"name": "decimals",
			"outputs": [
				{
					"internalType": "uint8",
					"name": "",
					"type": "uint8"
				}
			],
			"stateMutability": "pure",
			"type": "function"
		},
		{
			"inputs": [
				{
					"internalType": "address",
					"name": "spender",
					"type": "address"
				},
				{
					"internalType": "uint256",
					"name": "subtractedValue",
					"type": "uint256"
				}
			],
			"name": "decreaseAllowance",
			"outputs": [
				{
					"internalType": "bool",
					"name": "",
					"type": "bool"
				}
			],
			"stateMutability": "nonpayable",
			"type": "function"
		},
		{
			"inputs": [
				{
					"internalType": "bytes32",
					"name": "_requestId",
					"type": "bytes32"
				},
				{
					"internalType": "address",
					"name": "user",
					"type": "address"
				},
				{
					"internalType": "uint256",
					"name": "binary",
					"type": "uint256"
				}
			],
			"name": "fulfill",
			"outputs": [],
			"stateMutability": "nonpayable",
			"type": "function"
		},
		{
			"inputs": [],
			"name": "hasChecked",
			"outputs": [
				{
					"internalType": "bool",
					"name": "",
					"type": "bool"
				}
			],
			"stateMutability": "view",
			"type": "function"
		},
		{
			"inputs": [],
			"name": "haveClaimed",
			"outputs": [
				{
					"internalType": "bool[8]",
					"name": "",
					"type": "bool[8]"
				}
			],
			"stateMutability": "view",
			"type": "function"
		},
		{
			"inputs": [],
			"name": "inDatabase",
			"outputs": [
				{
					"internalType": "bool[8]",
					"name": "",
					"type": "bool[8]"
				}
			],
			"stateMutability": "view",
			"type": "function"
		},
		{
			"inputs": [
				{
					"internalType": "address",
					"name": "spender",
					"type": "address"
				},
				{
					"internalType": "uint256",
					"name": "addedValue",
					"type": "uint256"
				}
			],
			"name": "increaseAllowance",
			"outputs": [
				{
					"internalType": "bool",
					"name": "",
					"type": "bool"
				}
			],
			"stateMutability": "nonpayable",
			"type": "function"
		},
		{
			"inputs": [],
			"name": "midnightBonus",
			"outputs": [],
			"stateMutability": "nonpayable",
			"type": "function"
		},
		{
			"inputs": [],
			"name": "mintAllUnclaimedWait",
			"outputs": [],
			"stateMutability": "nonpayable",
			"type": "function"
		},
		{
			"inputs": [],
			"name": "mintAllWait",
			"outputs": [],
			"stateMutability": "nonpayable",
			"type": "function"
		},
		{
			"inputs": [
				{
					"internalType": "uint256",
					"name": "sac",
					"type": "uint256"
				}
			],
			"name": "mintUnclaimedWait",
			"outputs": [],
			"stateMutability": "nonpayable",
			"type": "function"
		},
		{
			"inputs": [
				{
					"internalType": "uint256",
					"name": "sac",
					"type": "uint256"
				}
			],
			"name": "mintWait",
			"outputs": [],
			"stateMutability": "nonpayable",
			"type": "function"
		},
		{
			"inputs": [],
			"name": "mintableAllUnclaimedWait",
			"outputs": [
				{
					"internalType": "uint256",
					"name": "waitAmount",
					"type": "uint256"
				}
			],
			"stateMutability": "view",
			"type": "function"
		},
		{
			"inputs": [],
			"name": "mintableAllWait",
			"outputs": [
				{
					"internalType": "uint256[]",
					"name": "",
					"type": "uint256[]"
				}
			],
			"stateMutability": "view",
			"type": "function"
		},
		{
			"inputs": [
				{
					"internalType": "uint256",
					"name": "sac",
					"type": "uint256"
				}
			],
			"name": "mintableUnclaimedWait",
			"outputs": [
				{
					"internalType": "uint256",
					"name": "waitAmount",
					"type": "uint256"
				}
			],
			"stateMutability": "view",
			"type": "function"
		},
		{
			"inputs": [
				{
					"internalType": "uint256",
					"name": "sac",
					"type": "uint256"
				}
			],
			"name": "mintableWait",
			"outputs": [
				{
					"internalType": "uint256",
					"name": "",
					"type": "uint256"
				}
			],
			"stateMutability": "view",
			"type": "function"
		},
		{
			"inputs": [
				{
					"internalType": "uint256",
					"name": "",
					"type": "uint256"
				}
			],
			"name": "mintedPeople",
			"outputs": [
				{
					"internalType": "uint256",
					"name": "",
					"type": "uint256"
				}
			],
			"stateMutability": "view",
			"type": "function"
		},
		{
			"inputs": [],
			"name": "minting",
			"outputs": [
				{
					"internalType": "bool",
					"name": "",
					"type": "bool"
				}
			],
			"stateMutability": "view",
			"type": "function"
		},
		{
			"inputs": [],
			"name": "name",
			"outputs": [
				{
					"internalType": "string",
					"name": "",
					"type": "string"
				}
			],
			"stateMutability": "view",
			"type": "function"
		},
		{
			"inputs": [],
			"name": "owner",
			"outputs": [
				{
					"internalType": "address",
					"name": "",
					"type": "address"
				}
			],
			"stateMutability": "view",
			"type": "function"
		},
		{
			"inputs": [
				{
					"internalType": "uint256",
					"name": "",
					"type": "uint256"
				}
			],
			"name": "sacTimes",
			"outputs": [
				{
					"internalType": "uint256",
					"name": "",
					"type": "uint256"
				}
			],
			"stateMutability": "view",
			"type": "function"
		},
		{
			"inputs": [],
			"name": "symbol",
			"outputs": [
				{
					"internalType": "string",
					"name": "",
					"type": "string"
				}
			],
			"stateMutability": "view",
			"type": "function"
		},
		{
			"inputs": [
				{
					"internalType": "uint256",
					"name": "",
					"type": "uint256"
				}
			],
			"name": "totalPeople",
			"outputs": [
				{
					"internalType": "uint256",
					"name": "",
					"type": "uint256"
				}
			],
			"stateMutability": "view",
			"type": "function"
		},
		{
			"inputs": [],
			"name": "totalSacs",
			"outputs": [
				{
					"internalType": "uint256",
					"name": "",
					"type": "uint256"
				}
			],
			"stateMutability": "view",
			"type": "function"
		},
		{
			"inputs": [],
			"name": "totalSupply",
			"outputs": [
				{
					"internalType": "uint256",
					"name": "",
					"type": "uint256"
				}
			],
			"stateMutability": "view",
			"type": "function"
		},
		{
			"inputs": [
				{
					"internalType": "uint256",
					"name": "",
					"type": "uint256"
				}
			],
			"name": "totalWait",
			"outputs": [
				{
					"internalType": "uint256",
					"name": "",
					"type": "uint256"
				}
			],
			"stateMutability": "view",
			"type": "function"
		},
		{
			"inputs": [
				{
					"internalType": "address",
					"name": "to",
					"type": "address"
				},
				{
					"internalType": "uint256",
					"name": "amount",
					"type": "uint256"
				}
			],
			"name": "transfer",
			"outputs": [
				{
					"internalType": "bool",
					"name": "",
					"type": "bool"
				}
			],
			"stateMutability": "nonpayable",
			"type": "function"
		},
		{
			"inputs": [
				{
					"internalType": "address",
					"name": "from",
					"type": "address"
				},
				{
					"internalType": "address",
					"name": "to",
					"type": "address"
				},
				{
					"internalType": "uint256",
					"name": "amount",
					"type": "uint256"
				}
			],
			"name": "transferFrom",
			"outputs": [
				{
					"internalType": "bool",
					"name": "",
					"type": "bool"
				}
			],
			"stateMutability": "nonpayable",
			"type": "function"
		},
		{
			"inputs": [
				{
					"internalType": "address",
					"name": "to",
					"type": "address"
				}
			],
			"name": "transferOwnership",
			"outputs": [],
			"stateMutability": "nonpayable",
			"type": "function"
		},
		{
			"inputs": [
				{
					"internalType": "uint256",
					"name": "",
					"type": "uint256"
				}
			],
			"name": "unclaimedWait",
			"outputs": [
				{
					"internalType": "uint256",
					"name": "",
					"type": "uint256"
				}
			],
			"stateMutability": "view",
			"type": "function"
		}
	],
	"bytecode": "0x608060405260016009557320d7aced31e7c947fab0c3ad62c2d426d152c399600e60006101000a81548173ffffffffffffffffffffffffffffffffffffffff021916908373ffffffffffffffffffffffffffffffffffffffff1602179055506008600f556001601060006101000a81548160ff0219169083151502179055503480156200008b57600080fd5b50338060006040518060400160405280600481526020017f57616974000000000000000000000000000000000000000000000000000000008152506040518060400160405280600481526020017f574149540000000000000000000000000000000000000000000000000000000081525081600390805190602001906200011492919062000672565b5080600490805190602001906200012d92919062000672565b505050600073ffffffffffffffffffffffffffffffffffffffff168273ffffffffffffffffffffffffffffffffffffffff161415620001a3576040517f08c379a00000000000000000000000000000000000000000000000000000000081526004016200019a9062000770565b60405180910390fd5b81600b60006101000a81548173ffffffffffffffffffffffffffffffffffffffff021916908373ffffffffffffffffffffffffffffffffffffffff160217905550600073ffffffffffffffffffffffffffffffffffffffff168173ffffffffffffffffffffffffffffffffffffffff16146200022b576200022a81620004b860201b60201c565b5b5050507325b6106149284b0269c44be6beda5ec59c89753a600d60006101000a81548173ffffffffffffffffffffffffffffffffffffffff021916908373ffffffffffffffffffffffffffffffffffffffff16021790555061d84e60166000808152602001908152602001600020819055506201e78f6016600060018152602001908152602001600020819055506124f960166000600281526020019081526020016000208190555060e6601660006003815260200190815260200160002081905550610347601660006004815260200190815260200160002081905550610b7960166000600581526020019081526020016000208190555061028d6016600060068152602001908152602001600020819055506104d960166000600781526020019081526020016000208190555063610887006019600080815260200190815260200160002081905550636216ca80601960006001815260200190815260200160002081905550636239118060196000600281526020019081526020016000208190555063621d6200601960006003815260200190815260200160002081905550636296ac00601960006004815260200190815260200160002081905550636233cb8060196000600581526020019081526020016000208190555063629bf2006019600060068152602001908152602001600020819055506362366e80601960006007815260200190815260200160002081905550620004667301be23585060835e02b77ef475b0cc51aa1e0709620005ea60201b60201c565b6200048b7328e27a26a6dd07a21c3aefe6785a1420b789b53c6200062e60201b60201c565b7f32333365616536656635633334616432613066653265616564373562356634346011819055506200087c565b3373ffffffffffffffffffffffffffffffffffffffff168173ffffffffffffffffffffffffffffffffffffffff1614156200052a576040517f08c379a0000000000000000000000000000000000000000000000000000000008152600401620005219062000792565b60405180910390fd5b80600c60006101000a81548173ffffffffffffffffffffffffffffffffffffffff021916908373ffffffffffffffffffffffffffffffffffffffff1602179055508073ffffffffffffffffffffffffffffffffffffffff16600b60009054906101000a900473ffffffffffffffffffffffffffffffffffffffff1673ffffffffffffffffffffffffffffffffffffffff167fed8889f560326eb138920d842192f0eb3dd22b4f139c87a2c57538e05bae127860405160405180910390a350565b80600760006101000a81548173ffffffffffffffffffffffffffffffffffffffff021916908373ffffffffffffffffffffffffffffffffffffffff16021790555050565b80600860006101000a81548173ffffffffffffffffffffffffffffffffffffffff021916908373ffffffffffffffffffffffffffffffffffffffff16021790555050565b8280546200068090620007c5565b90600052602060002090601f016020900481019282620006a45760008555620006f0565b82601f10620006bf57805160ff1916838001178555620006f0565b82800160010185558215620006f0579182015b82811115620006ef578251825591602001919060010190620006d2565b5b509050620006ff919062000703565b5090565b5b808211156200071e57600081600090555060010162000704565b5090565b600062000731601883620007b4565b91506200073e826200082a565b602082019050919050565b600062000758601783620007b4565b9150620007658262000853565b602082019050919050565b600060208201905081810360008301526200078b8162000722565b9050919050565b60006020820190508181036000830152620007ad8162000749565b9050919050565b600082825260208201905092915050565b60006002820490506001821680620007de57607f821691505b60208210811415620007f557620007f4620007fb565b5b50919050565b7f4e487b7100000000000000000000000000000000000000000000000000000000600052602260045260246000fd5b7f43616e6e6f7420736574206f776e657220746f207a65726f0000000000000000600082015250565b7f43616e6e6f74207472616e7366657220746f2073656c66000000000000000000600082015250565b615e77806200088c6000396000f3fe608060405234801561001057600080fd5b50600436106102535760003560e01c806361920e7b11610146578063a457c2d7116100c3578063d5ab7a5611610087578063d5ab7a5614610738578063dd62ed3e14610756578063e5c1a1d614610786578063f2fde38b146107a4578063fea9878e146107c0578063ff8053e6146107f057610253565b8063a457c2d71461066c578063a9059cbb1461069c578063b02defae146106cc578063bfbb2281146106ea578063cd561c3f1461070857610253565b80637dc2268c1161010a5780637dc2268c146105c4578063833fd5fe146105e25780638da5cb5b1461060057806395d89b411461061e578063a173b6391461063c57610253565b806361920e7b1461050e5780636aa3eac91461053e57806370a082311461056e57806379ba50971461059e57806379cc6790146105a857610253565b80631faee43b116101d457806338ed5a611161019857806338ed5a6114610458578063395093511461048857806342966c68146104b857806343b416ea146104d4578063585f6d88146104de57610253565b80631faee43b146103a257806323b872dd146103d25780632a29ece614610402578063313ce5671461041e57806333fed5911461043c57610253565b8063115cfb551161021b578063115cfb55146102ea57806312a850931461031a57806318160ddd1461034a578063187af51b14610368578063196f7d5e1461039857610253565b806301a675cb14610258578063049563261461027657806306fdde0314610280578063095ea7b31461029e5780630b3b3882146102ce575b600080fd5b610260610820565b60405161026d9190614cef565b60405180910390f35b61027e610b76565b005b610288610eb0565b6040516102959190614d63565b60405180910390f35b6102b860048036038101906102b39190614532565b610f42565b6040516102c59190614d2d565b60405180910390f35b6102e860048036038101906102e39190614627565b610f65565b005b61030460048036038101906102ff9190614627565b611296565b60405161031191906150a5565b60405180910390f35b610334600480360381019061032f9190614650565b6112ae565b6040516103419190614d2d565b60405180910390f35b6103526112dd565b60405161035f91906150a5565b60405180910390f35b610382600480360381019061037d91906145e6565b6112e7565b60405161038f9190614d48565b60405180910390f35b6103a061145a565b005b6103bc60048036038101906103b79190614627565b611640565b6040516103c991906150a5565b60405180910390f35b6103ec60048036038101906103e791906144e3565b611807565b6040516103f99190614d2d565b60405180910390f35b61041c60048036038101906104179190614597565b611836565b005b610426611e28565b60405161043391906150c0565b60405180910390f35b61045660048036038101906104519190614627565b611e2d565b005b610472600480360381019061046d9190614650565b612066565b60405161047f91906150a5565b60405180910390f35b6104a2600480360381019061049d9190614532565b61208b565b6040516104af9190614d2d565b60405180910390f35b6104d260048036038101906104cd9190614627565b6120c2565b005b6104dc6120d6565b005b6104f860048036038101906104f3919061447e565b6122d4565b6040516105059190614d2d565b60405180910390f35b61052860048036038101906105239190614627565b6122f4565b60405161053591906150a5565b60405180910390f35b61055860048036038101906105539190614650565b61250b565b6040516105659190614d2d565b60405180910390f35b6105886004803603810190610583919061447e565b61253a565b60405161059591906150a5565b60405180910390f35b6105a6612582565b005b6105c260048036038101906105bd9190614532565b612719565b005b6105cc612739565b6040516105d99190614d2d565b60405180910390f35b6105ea61274c565b6040516105f791906150a5565b60405180910390f35b610608612752565b6040516106159190614c20565b60405180910390f35b61062661277c565b6040516106339190614d63565b60405180910390f35b61065660048036038101906106519190614627565b61280e565b60405161066391906150a5565b60405180910390f35b61068660048036038101906106819190614532565b612826565b6040516106939190614d2d565b60405180910390f35b6106b660048036038101906106b19190614532565b61289d565b6040516106c39190614d2d565b60405180910390f35b6106d46128c0565b6040516106e19190614cef565b60405180910390f35b6106f2612c16565b6040516106ff9190614d2d565b60405180910390f35b610722600480360381019061071d9190614627565b612c6a565b60405161072f91906150a5565b60405180910390f35b610740612c82565b60405161074d91906150a5565b60405180910390f35b610770600480360381019061076b91906144a7565b612df6565b60405161077d91906150a5565b60405180910390f35b61078e612e7d565b60405161079b9190614d0b565b60405180910390f35b6107be60048036038101906107b9919061447e565b6130ad565b005b6107da60048036038101906107d59190614627565b6130c1565b6040516107e791906150a5565b60405180910390f35b61080a60048036038101906108059190614627565b6130d9565b60405161081791906150a5565b60405180910390f35b610828614318565b6040518061010001604052806012600080815260200190815260200160002060003373ffffffffffffffffffffffffffffffffffffffff1673ffffffffffffffffffffffffffffffffffffffff16815260200190815260200160002060009054906101000a900460ff16151515158152602001601260006001815260200190815260200160002060003373ffffffffffffffffffffffffffffffffffffffff1673ffffffffffffffffffffffffffffffffffffffff16815260200190815260200160002060009054906101000a900460ff16151515158152602001601260006002815260200190815260200160002060003373ffffffffffffffffffffffffffffffffffffffff1673ffffffffffffffffffffffffffffffffffffffff16815260200190815260200160002060009054906101000a900460ff16151515158152602001601260006003815260200190815260200160002060003373ffffffffffffffffffffffffffffffffffffffff1673ffffffffffffffffffffffffffffffffffffffff16815260200190815260200160002060009054906101000a900460ff16151515158152602001601260006004815260200190815260200160002060003373ffffffffffffffffffffffffffffffffffffffff1673ffffffffffffffffffffffffffffffffffffffff16815260200190815260200160002060009054906101000a900460ff16151515158152602001601260006005815260200190815260200160002060003373ffffffffffffffffffffffffffffffffffffffff1673ffffffffffffffffffffffffffffffffffffffff16815260200190815260200160002060009054906101000a900460ff16151515158152602001601260006006815260200190815260200160002060003373ffffffffffffffffffffffffffffffffffffffff1673ffffffffffffffffffffffffffffffffffffffff16815260200190815260200160002060009054906101000a900460ff16151515158152602001601260006007815260200190815260200160002060003373ffffffffffffffffffffffffffffffffffffffff1673ffffffffffffffffffffffffffffffffffffffff16815260200190815260200160002060009054906101000a900460ff1615151515815250905090565b60011515601060009054906101000a900460ff16151514610bcc576040517f08c379a0000000000000000000000000000000000000000000000000000000008152600401610bc390614f05565b60405180910390fd5b6000805b600f54811015610ea2576013600082815260200190815260200160002060003373ffffffffffffffffffffffffffffffffffffffff1673ffffffffffffffffffffffffffffffffffffffff16815260200190815260200160002060009054906101000a900460ff16158015610c9f57506012600082815260200190815260200160002060003373ffffffffffffffffffffffffffffffffffffffff1673ffffffffffffffffffffffffffffffffffffffff16815260200190815260200160002060009054906101000a900460ff165b15610e8f5760016013600083815260200190815260200160002060003373ffffffffffffffffffffffffffffffffffffffff1673ffffffffffffffffffffffffffffffffffffffff16815260200190815260200160002060006101000a81548160ff021916908315150217905550601760008281526020019081526020016000206000815480929190610d31906155a9565b9190505550610e10601960008381526020019081526020016000205442610d589190615421565b610d629190615225565b6014600083815260200190815260200160002060003373ffffffffffffffffffffffffffffffffffffffff1673ffffffffffffffffffffffffffffffffffffffff168152602001908152602001600020819055506014600082815260200190815260200160002060003373ffffffffffffffffffffffffffffffffffffffff1673ffffffffffffffffffffffffffffffffffffffff16815260200190815260200160002054601560008381526020019081526020016000206000828254610e2991906151cf565b925050819055506014600082815260200190815260200160002060003373ffffffffffffffffffffffffffffffffffffffff1673ffffffffffffffffffffffffffffffffffffffff1681526020019081526020016000205482610e8c91906151cf565b91505b8080610e9a906155a9565b915050610bd0565b50610ead33826130f1565b50565b606060038054610ebf90615546565b80601f0160208091040260200160405190810160405280929190818152602001828054610eeb90615546565b8015610f385780601f10610f0d57610100808354040283529160200191610f38565b820191906000526020600020905b815481529060010190602001808311610f1b57829003601f168201915b5050505050905090565b600080610f4d613251565b9050610f5a818585613259565b600191505092915050565b60011515601060009054906101000a900460ff16151514610fbb576040517f08c379a0000000000000000000000000000000000000000000000000000000008152600401610fb290614f05565b60405180910390fd5b600f548110610fff576040517f08c379a0000000000000000000000000000000000000000000000000000000008152600401610ff690614fc5565b60405180910390fd5b600015156013600083815260200190815260200160002060003373ffffffffffffffffffffffffffffffffffffffff1673ffffffffffffffffffffffffffffffffffffffff16815260200190815260200160002060009054906101000a900460ff161515146110a3576040517f08c379a000000000000000000000000000000000000000000000000000000000815260040161109a90614e25565b60405180910390fd5b600115156012600083815260200190815260200160002060003373ffffffffffffffffffffffffffffffffffffffff1673ffffffffffffffffffffffffffffffffffffffff16815260200190815260200160002060009054906101000a900460ff16151514611147576040517f08c379a000000000000000000000000000000000000000000000000000000000815260040161113e90614f45565b60405180910390fd5b60016013600083815260200190815260200160002060003373ffffffffffffffffffffffffffffffffffffffff1673ffffffffffffffffffffffffffffffffffffffff16815260200190815260200160002060006101000a81548160ff0219169083151502179055506017600082815260200190815260200160002060008154809291906111d4906155a9565b91905055506000610e106019600084815260200190815260200160002054426111fd9190615421565b6112079190615225565b9050806014600084815260200190815260200160002060003373ffffffffffffffffffffffffffffffffffffffff1673ffffffffffffffffffffffffffffffffffffffff168152602001908152602001600020819055508060156000848152602001908152602001600020600082825461128191906151cf565b9250508190555061129233826130f1565b5050565b60196020528060005260406000206000915090505481565b60126020528160005260406000206020528060005260406000206000915091509054906101000a900460ff1681565b6000600254905090565b6000806112fe60115430632a29ece660e01b613424565b905061134a6040518060400160405280600781526020017f616464726573730000000000000000000000000000000000000000000000000081525084836134559092919063ffffffff16565b6113c96040518060400160405280600481526020017f70617468000000000000000000000000000000000000000000000000000000008152506040518060400160405280600381526020017f62726f0000000000000000000000000000000000000000000000000000000000815250836134559092919063ffffffff16565b6114486040518060400160405280600581526020017f70617468310000000000000000000000000000000000000000000000000000008152506040518060400160405280600381526020017f6d616e0000000000000000000000000000000000000000000000000000000000815250836134559092919063ffffffff16565b611453816000613488565b5050919050565b601060009054906101000a900460ff16156114aa576040517f08c379a00000000000000000000000000000000000000000000000000000000081526004016114a190614ee5565b60405180910390fd5b6000805b600f54811015611632576013600082815260200190815260200160002060003373ffffffffffffffffffffffffffffffffffffffff1673ffffffffffffffffffffffffffffffffffffffff16815260200190815260200160002060009054906101000a900460ff161561161f5760006013600083815260200190815260200160002060003373ffffffffffffffffffffffffffffffffffffffff1673ffffffffffffffffffffffffffffffffffffffff16815260200190815260200160002060006101000a81548160ff02191690831515021790555060156000828152602001908152602001600020546014600083815260200190815260200160002060003373ffffffffffffffffffffffffffffffffffffffff1673ffffffffffffffffffffffffffffffffffffffff16815260200190815260200160002054601860008481526020019081526020016000205461160791906153c7565b6116119190615225565b8261161c91906151cf565b91505b808061162a906155a9565b9150506114ae565b5061163d33826130f1565b50565b6000600f548210611686576040517f08c379a000000000000000000000000000000000000000000000000000000000815260040161167d90614fa5565b60405180910390fd5b601060009054906101000a900460ff16156116d6576040517f08c379a00000000000000000000000000000000000000000000000000000000081526004016116cd90614ee5565b60405180910390fd5b6013600083815260200190815260200160002060003373ffffffffffffffffffffffffffffffffffffffff1673ffffffffffffffffffffffffffffffffffffffff16815260200190815260200160002060009054906101000a900460ff16611773576040517f08c379a000000000000000000000000000000000000000000000000000000000815260040161176a90615045565b60405180910390fd5b60156000838152602001908152602001600020546014600084815260200190815260200160002060003373ffffffffffffffffffffffffffffffffffffffff1673ffffffffffffffffffffffffffffffffffffffff1681526020019081526020016000205460186000858152602001908152602001600020546117f691906153c7565b6118009190615225565b9050919050565b600080611812613251565b905061181f8582856134bf565b61182a85858561354b565b60019150509392505050565b82600a600082815260200190815260200160002060009054906101000a900473ffffffffffffffffffffffffffffffffffffffff1673ffffffffffffffffffffffffffffffffffffffff163373ffffffffffffffffffffffffffffffffffffffff16146118d8576040517f08c379a00000000000000000000000000000000000000000000000000000000081526004016118cf90615025565b60405180910390fd5b600a600082815260200190815260200160002060006101000a81549073ffffffffffffffffffffffffffffffffffffffff0219169055807f7cc135e0cebb02c3480ae5d74d377283180a2601f8f644edf7987b009316c63a60405160405180910390a260008290507f6b1fb2ade8b8043a24a96fc34f22271872018ed79fa1a9beda8054245a4d67478460405161196f9190614c20565b60405180910390a16001601a60008673ffffffffffffffffffffffffffffffffffffffff1673ffffffffffffffffffffffffffffffffffffffff16815260200190815260200160002060006101000a81548160ff02191690831515021790555060808110611a51576001601260006007815260200190815260200160002060008673ffffffffffffffffffffffffffffffffffffffff1673ffffffffffffffffffffffffffffffffffffffff16815260200190815260200160002060006101000a81548160ff021916908315150217905550608081611a4e9190615421565b90505b60408110611ad3576001601260006006815260200190815260200160002060008673ffffffffffffffffffffffffffffffffffffffff1673ffffffffffffffffffffffffffffffffffffffff16815260200190815260200160002060006101000a81548160ff021916908315150217905550604081611ad09190615421565b90505b60208110611b55576001601260006005815260200190815260200160002060008673ffffffffffffffffffffffffffffffffffffffff1673ffffffffffffffffffffffffffffffffffffffff16815260200190815260200160002060006101000a81548160ff021916908315150217905550602081611b529190615421565b90505b60108110611bd7576001601260006004815260200190815260200160002060008673ffffffffffffffffffffffffffffffffffffffff1673ffffffffffffffffffffffffffffffffffffffff16815260200190815260200160002060006101000a81548160ff021916908315150217905550601081611bd49190615421565b90505b60088110611c59576001601260006003815260200190815260200160002060008673ffffffffffffffffffffffffffffffffffffffff1673ffffffffffffffffffffffffffffffffffffffff16815260200190815260200160002060006101000a81548160ff021916908315150217905550600881611c569190615421565b90505b60048110611cdb576001601260006002815260200190815260200160002060008673ffffffffffffffffffffffffffffffffffffffff1673ffffffffffffffffffffffffffffffffffffffff16815260200190815260200160002060006101000a81548160ff021916908315150217905550600481611cd89190615421565b90505b60028110611d5d576001601260006001815260200190815260200160002060008673ffffffffffffffffffffffffffffffffffffffff1673ffffffffffffffffffffffffffffffffffffffff16815260200190815260200160002060006101000a81548160ff021916908315150217905550600281611d5a9190615421565b90505b60018110611dde5760016012600080815260200190815260200160002060008673ffffffffffffffffffffffffffffffffffffffff1673ffffffffffffffffffffffffffffffffffffffff16815260200190815260200160002060006101000a81548160ff021916908315150217905550600181611ddb9190615421565b90505b60008114611e21576040517f08c379a0000000000000000000000000000000000000000000000000000000008152600401611e1890614ec5565b60405180910390fd5b5050505050565b600090565b600f548110611e71576040517f08c379a0000000000000000000000000000000000000000000000000000000008152600401611e6890614fa5565b60405180910390fd5b601060009054906101000a900460ff1615611ec1576040517f08c379a0000000000000000000000000000000000000000000000000000000008152600401611eb890614ee5565b60405180910390fd5b6013600082815260200190815260200160002060003373ffffffffffffffffffffffffffffffffffffffff1673ffffffffffffffffffffffffffffffffffffffff16815260200190815260200160002060009054906101000a900460ff16611f5e576040517f08c379a0000000000000000000000000000000000000000000000000000000008152600401611f5590615045565b60405180910390fd5b60006013600083815260200190815260200160002060003373ffffffffffffffffffffffffffffffffffffffff1673ffffffffffffffffffffffffffffffffffffffff16815260200190815260200160002060006101000a81548160ff021916908315150217905550600060156000838152602001908152602001600020546014600084815260200190815260200160002060003373ffffffffffffffffffffffffffffffffffffffff1673ffffffffffffffffffffffffffffffffffffffff16815260200190815260200160002054601860008581526020019081526020016000205461204c91906153c7565b6120569190615225565b905061206233826130f1565b5050565b6014602052816000526040600020602052806000526040600020600091509150505481565b600080612096613251565b90506120b78185856120a88589612df6565b6120b291906151cf565b613259565b600191505092915050565b6120d36120cd613251565b826137cc565b50565b600d60009054906101000a900473ffffffffffffffffffffffffffffffffffffffff1673ffffffffffffffffffffffffffffffffffffffff163373ffffffffffffffffffffffffffffffffffffffff1614612166576040517f08c379a000000000000000000000000000000000000000000000000000000000815260040161215d90614de5565b60405180910390fd5b60011515601060009054906101000a900460ff161515146121bc576040517f08c379a00000000000000000000000000000000000000000000000000000000081526004016121b390614f05565b60405180910390fd5b6000601060006101000a81548160ff0219169083151502179055506000805b600f548110156122a4576002610e106019600084815260200190815260200160002054426122099190615421565b6122139190615225565b601760008481526020019081526020016000205460166000858152602001908152602001600020546122459190615421565b61224f91906153c7565b6122599190615225565b601860008381526020019081526020016000208190555060186000828152602001908152602001600020548261228f91906151cf565b9150808061229c906155a9565b9150506121db565b506122d1600e60009054906101000a900473ffffffffffffffffffffffffffffffffffffffff16826130f1565b50565b601a6020528060005260406000206000915054906101000a900460ff1681565b600060011515601060009054906101000a900460ff1615151461234c576040517f08c379a000000000000000000000000000000000000000000000000000000000815260040161234390614f05565b60405180910390fd5b600f548210612390576040517f08c379a000000000000000000000000000000000000000000000000000000000815260040161238790614fc5565b60405180910390fd5b600115156012600084815260200190815260200160002060003373ffffffffffffffffffffffffffffffffffffffff1673ffffffffffffffffffffffffffffffffffffffff16815260200190815260200160002060009054906101000a900460ff16151514612434576040517f08c379a000000000000000000000000000000000000000000000000000000000815260040161242b90614f25565b60405180910390fd5b600015156013600084815260200190815260200160002060003373ffffffffffffffffffffffffffffffffffffffff1673ffffffffffffffffffffffffffffffffffffffff16815260200190815260200160002060009054906101000a900460ff161515146124d8576040517f08c379a00000000000000000000000000000000000000000000000000000000081526004016124cf90614e25565b60405180910390fd5b610e106019600084815260200190815260200160002054426124fa9190615421565b6125049190615225565b9050919050565b60136020528160005260406000206020528060005260406000206000915091509054906101000a900460ff1681565b60008060008373ffffffffffffffffffffffffffffffffffffffff1673ffffffffffffffffffffffffffffffffffffffff168152602001908152602001600020549050919050565b600c60009054906101000a900473ffffffffffffffffffffffffffffffffffffffff1673ffffffffffffffffffffffffffffffffffffffff163373ffffffffffffffffffffffffffffffffffffffff1614612612576040517f08c379a000000000000000000000000000000000000000000000000000000000815260040161260990614da5565b60405180910390fd5b6000600b60009054906101000a900473ffffffffffffffffffffffffffffffffffffffff16905033600b60006101000a81548173ffffffffffffffffffffffffffffffffffffffff021916908373ffffffffffffffffffffffffffffffffffffffff1602179055506000600c60006101000a81548173ffffffffffffffffffffffffffffffffffffffff021916908373ffffffffffffffffffffffffffffffffffffffff1602179055503373ffffffffffffffffffffffffffffffffffffffff168173ffffffffffffffffffffffffffffffffffffffff167f8be0079c531659141344cd1fd0a4f28419497f9722a3daafe3b4186f6b6457e060405160405180910390a350565b61272b82612725613251565b836134bf565b61273582826137cc565b5050565b601060009054906101000a900460ff1681565b600f5481565b6000600b60009054906101000a900473ffffffffffffffffffffffffffffffffffffffff16905090565b60606004805461278b90615546565b80601f01602080910402602001604051908101604052809291908181526020018280546127b790615546565b80156128045780601f106127d957610100808354040283529160200191612804565b820191906000526020600020905b8154815290600101906020018083116127e757829003601f168201915b5050505050905090565b60166020528060005260406000206000915090505481565b600080612831613251565b9050600061283f8286612df6565b905083811015612884576040517f08c379a000000000000000000000000000000000000000000000000000000000815260040161287b90615065565b60405180910390fd5b6128918286868403613259565b60019250505092915050565b6000806128a8613251565b90506128b581858561354b565b600191505092915050565b6128c8614318565b6040518061010001604052806013600080815260200190815260200160002060003373ffffffffffffffffffffffffffffffffffffffff1673ffffffffffffffffffffffffffffffffffffffff16815260200190815260200160002060009054906101000a900460ff16151515158152602001601360006001815260200190815260200160002060003373ffffffffffffffffffffffffffffffffffffffff1673ffffffffffffffffffffffffffffffffffffffff16815260200190815260200160002060009054906101000a900460ff16151515158152602001601360006002815260200190815260200160002060003373ffffffffffffffffffffffffffffffffffffffff1673ffffffffffffffffffffffffffffffffffffffff16815260200190815260200160002060009054906101000a900460ff16151515158152602001601360006003815260200190815260200160002060003373ffffffffffffffffffffffffffffffffffffffff1673ffffffffffffffffffffffffffffffffffffffff16815260200190815260200160002060009054906101000a900460ff16151515158152602001601360006004815260200190815260200160002060003373ffffffffffffffffffffffffffffffffffffffff1673ffffffffffffffffffffffffffffffffffffffff16815260200190815260200160002060009054906101000a900460ff16151515158152602001601360006005815260200190815260200160002060003373ffffffffffffffffffffffffffffffffffffffff1673ffffffffffffffffffffffffffffffffffffffff16815260200190815260200160002060009054906101000a900460ff16151515158152602001601360006006815260200190815260200160002060003373ffffffffffffffffffffffffffffffffffffffff1673ffffffffffffffffffffffffffffffffffffffff16815260200190815260200160002060009054906101000a900460ff16151515158152602001601360006007815260200190815260200160002060003373ffffffffffffffffffffffffffffffffffffffff1673ffffffffffffffffffffffffffffffffffffffff16815260200190815260200160002060009054906101000a900460ff1615151515815250905090565b6000601a60003373ffffffffffffffffffffffffffffffffffffffff1673ffffffffffffffffffffffffffffffffffffffff16815260200190815260200160002060009054906101000a900460ff16905090565b60176020528060005260406000206000915090505481565b6000601060009054906101000a900460ff1615612cd4576040517f08c379a0000000000000000000000000000000000000000000000000000000008152600401612ccb90614ee5565b60405180910390fd5b60005b600f54811015612df2576013600082815260200190815260200160002060003373ffffffffffffffffffffffffffffffffffffffff1673ffffffffffffffffffffffffffffffffffffffff16815260200190815260200160002060009054906101000a900460ff1615612ddf5760156000828152602001908152602001600020546014600083815260200190815260200160002060003373ffffffffffffffffffffffffffffffffffffffff1673ffffffffffffffffffffffffffffffffffffffff168152602001908152602001600020546018600084815260200190815260200160002054612dc791906153c7565b612dd19190615225565b82612ddc91906151cf565b91505b8080612dea906155a9565b915050612cd7565b5090565b6000600160008473ffffffffffffffffffffffffffffffffffffffff1673ffffffffffffffffffffffffffffffffffffffff16815260200190815260200160002060008373ffffffffffffffffffffffffffffffffffffffff1673ffffffffffffffffffffffffffffffffffffffff16815260200190815260200160002054905092915050565b606060011515601060009054906101000a900460ff16151514612ed5576040517f08c379a0000000000000000000000000000000000000000000000000000000008152600401612ecc90614f05565b60405180910390fd5b6000600867ffffffffffffffff811115612f18577f4e487b7100000000000000000000000000000000000000000000000000000000600052604160045260246000fd5b604051908082528060200260200182016040528015612f465781602001602082028036833780820191505090505b50905060005b600f548110156130a5576013600082815260200190815260200160002060003373ffffffffffffffffffffffffffffffffffffffff1673ffffffffffffffffffffffffffffffffffffffff16815260200190815260200160002060009054906101000a900460ff1615801561301b57506012600082815260200190815260200160002060003373ffffffffffffffffffffffffffffffffffffffff1673ffffffffffffffffffffffffffffffffffffffff16815260200190815260200160002060009054906101000a900460ff165b1561309257610e106019600083815260200190815260200160002054426130429190615421565b61304c9190615225565b828281518110613085577f4e487b7100000000000000000000000000000000000000000000000000000000600052603260045260246000fd5b6020026020010181815250505b808061309d906155a9565b915050612f4c565b508091505090565b6130b56139a3565b6130be81613a35565b50565b60186020528060005260406000206000915090505481565b60156020528060005260406000206000915090505481565b600073ffffffffffffffffffffffffffffffffffffffff168273ffffffffffffffffffffffffffffffffffffffff161415613161576040517f08c379a000000000000000000000000000000000000000000000000000000000815260040161315890615085565b60405180910390fd5b61316d60008383613b64565b806002600082825461317f91906151cf565b92505081905550806000808473ffffffffffffffffffffffffffffffffffffffff1673ffffffffffffffffffffffffffffffffffffffff16815260200190815260200160002060008282546131d491906151cf565b925050819055508173ffffffffffffffffffffffffffffffffffffffff16600073ffffffffffffffffffffffffffffffffffffffff167fddf252ad1be2c89b69c2b068fc378daa952ba7f163c4a11628f55a4df523b3ef8360405161323991906150a5565b60405180910390a361324d60008383613b69565b5050565b600033905090565b600073ffffffffffffffffffffffffffffffffffffffff168373ffffffffffffffffffffffffffffffffffffffff1614156132c9576040517f08c379a00000000000000000000000000000000000000000000000000000000081526004016132c090614fe5565b60405180910390fd5b600073ffffffffffffffffffffffffffffffffffffffff168273ffffffffffffffffffffffffffffffffffffffff161415613339576040517f08c379a000000000000000000000000000000000000000000000000000000000815260040161333090614e05565b60405180910390fd5b80600160008573ffffffffffffffffffffffffffffffffffffffff1673ffffffffffffffffffffffffffffffffffffffff16815260200190815260200160002060008473ffffffffffffffffffffffffffffffffffffffff1673ffffffffffffffffffffffffffffffffffffffff168152602001908152602001600020819055508173ffffffffffffffffffffffffffffffffffffffff168373ffffffffffffffffffffffffffffffffffffffff167f8c5be1e5ebec7d5bd14f71427d1e84f3dd0314c0f7b2291e5b200ac8c7c3b9258360405161341791906150a5565b60405180910390a3505050565b61342c61433b565b61343461433b565b61344b85858584613b6e909392919063ffffffff16565b9150509392505050565b61346c828460800151613c1e90919063ffffffff16565b613483818460800151613c1e90919063ffffffff16565b505050565b60006134b7600860009054906101000a900473ffffffffffffffffffffffffffffffffffffffff168484613c43565b905092915050565b60006134cb8484612df6565b90507fffffffffffffffffffffffffffffffffffffffffffffffffffffffffffffffff81146135455781811015613537576040517f08c379a000000000000000000000000000000000000000000000000000000000815260040161352e90614e65565b60405180910390fd5b6135448484848403613259565b5b50505050565b600073ffffffffffffffffffffffffffffffffffffffff168373ffffffffffffffffffffffffffffffffffffffff1614156135bb576040517f08c379a00000000000000000000000000000000000000000000000000000000081526004016135b290614f85565b60405180910390fd5b600073ffffffffffffffffffffffffffffffffffffffff168273ffffffffffffffffffffffffffffffffffffffff16141561362b576040517f08c379a000000000000000000000000000000000000000000000000000000000815260040161362290614d85565b60405180910390fd5b613636838383613b64565b60008060008573ffffffffffffffffffffffffffffffffffffffff1673ffffffffffffffffffffffffffffffffffffffff168152602001908152602001600020549050818110156136bc576040517f08c379a00000000000000000000000000000000000000000000000000000000081526004016136b390614ea5565b60405180910390fd5b8181036000808673ffffffffffffffffffffffffffffffffffffffff1673ffffffffffffffffffffffffffffffffffffffff16815260200190815260200160002081905550816000808573ffffffffffffffffffffffffffffffffffffffff1673ffffffffffffffffffffffffffffffffffffffff168152602001908152602001600020600082825461374f91906151cf565b925050819055508273ffffffffffffffffffffffffffffffffffffffff168473ffffffffffffffffffffffffffffffffffffffff167fddf252ad1be2c89b69c2b068fc378daa952ba7f163c4a11628f55a4df523b3ef846040516137b391906150a5565b60405180910390a36137c6848484613b69565b50505050565b600073ffffffffffffffffffffffffffffffffffffffff168273ffffffffffffffffffffffffffffffffffffffff16141561383c576040517f08c379a000000000000000000000000000000000000000000000000000000000815260040161383390614f65565b60405180910390fd5b61384882600083613b64565b60008060008473ffffffffffffffffffffffffffffffffffffffff1673ffffffffffffffffffffffffffffffffffffffff168152602001908152602001600020549050818110156138ce576040517f08c379a00000000000000000000000000000000000000000000000000000000081526004016138c590614dc5565b60405180910390fd5b8181036000808573ffffffffffffffffffffffffffffffffffffffff1673ffffffffffffffffffffffffffffffffffffffff1681526020019081526020016000208190555081600260008282546139259190615421565b92505081905550600073ffffffffffffffffffffffffffffffffffffffff168373ffffffffffffffffffffffffffffffffffffffff167fddf252ad1be2c89b69c2b068fc378daa952ba7f163c4a11628f55a4df523b3ef8460405161398a91906150a5565b60405180910390a361399e83600084613b69565b505050565b600b60009054906101000a900473ffffffffffffffffffffffffffffffffffffffff1673ffffffffffffffffffffffffffffffffffffffff163373ffffffffffffffffffffffffffffffffffffffff1614613a33576040517f08c379a0000000000000000000000000000000000000000000000000000000008152600401613a2a90614e85565b60405180910390fd5b565b3373ffffffffffffffffffffffffffffffffffffffff168173ffffffffffffffffffffffffffffffffffffffff161415613aa4576040517f08c379a0000000000000000000000000000000000000000000000000000000008152600401613a9b90615005565b60405180910390fd5b80600c60006101000a81548173ffffffffffffffffffffffffffffffffffffffff021916908373ffffffffffffffffffffffffffffffffffffffff1602179055508073ffffffffffffffffffffffffffffffffffffffff16600b60009054906101000a900473ffffffffffffffffffffffffffffffffffffffff1673ffffffffffffffffffffffffffffffffffffffff167fed8889f560326eb138920d842192f0eb3dd22b4f139c87a2c57538e05bae127860405160405180910390a350565b505050565b505050565b613b7661433b565b613b868560800151610100613d0d565b508385600001818152505082856020019073ffffffffffffffffffffffffffffffffffffffff16908173ffffffffffffffffffffffffffffffffffffffff16815250508185604001907bffffffffffffffffffffffffffffffffffffffffffffffffffffffff191690817bffffffffffffffffffffffffffffffffffffffffffffffffffffffff191681525050849050949350505050565b613c2b8260038351613d77565b613c3e8183613efc90919063ffffffff16565b505050565b6000806009549050600181613c5891906151cf565b6009819055506000633c6d41b960e01b600080876000015188604001518660028b6080015160000151604051602401613c979796959493929190614c3b565b604051602081830303815290604052907bffffffffffffffffffffffffffffffffffffffffffffffffffffffff19166020820180517bffffffffffffffffffffffffffffffffffffffffffffffffffffffff83818316178352505050509050613d0286838684613f1e565b925050509392505050565b613d156143a8565b6000602083613d249190615620565b14613d5057602082613d369190615620565b6020613d429190615421565b82613d4d91906151cf565b91505b81836020018181525050604051808452600081528281016020016040525082905092915050565b60178167ffffffffffffffff1611613dae57613da88160058460ff16901b60ff1617846140c290919063ffffffff16565b50613ef7565b60ff8167ffffffffffffffff1611613e0457613ddd601860058460ff16901b17846140c290919063ffffffff16565b50613dfe8167ffffffffffffffff166001856140e29092919063ffffffff16565b50613ef6565b61ffff8167ffffffffffffffff1611613e5b57613e34601960058460ff16901b17846140c290919063ffffffff16565b50613e558167ffffffffffffffff166002856140e29092919063ffffffff16565b50613ef5565b63ffffffff8167ffffffffffffffff1611613eb457613e8d601a60058460ff16901b17846140c290919063ffffffff16565b50613eae8167ffffffffffffffff166004856140e29092919063ffffffff16565b50613ef4565b613ed1601b60058460ff16901b17846140c290919063ffffffff16565b50613ef28167ffffffffffffffff166008856140e29092919063ffffffff16565b505b5b5b5b505050565b613f046143a8565b613f1683846000015151848551614104565b905092915050565b60003084604051602001613f33929190614bf4565b60405160208183030381529060405280519060200120905084600a600083815260200190815260200160002060006101000a81548173ffffffffffffffffffffffffffffffffffffffff021916908373ffffffffffffffffffffffffffffffffffffffff160217905550807fb5e6e01e79f91267dc17b4e6314d5d4d03593d2ceee0fbb452b750bd70ea5af960405160405180910390a2600760009054906101000a900473ffffffffffffffffffffffffffffffffffffffff1673ffffffffffffffffffffffffffffffffffffffff16634000aea08685856040518463ffffffff1660e01b815260040161402993929190614cb1565b602060405180830381600087803b15801561404357600080fd5b505af1158015614057573d6000803e3d6000fd5b505050506040513d601f19601f8201168201806040525081019061407b919061456e565b6140ba576040517f08c379a00000000000000000000000000000000000000000000000000000000081526004016140b190614e45565b60405180910390fd5b949350505050565b6140ca6143a8565b6140da83846000015151846141f3565b905092915050565b6140ea6143a8565b6140fb84856000015151858561424a565b90509392505050565b61410c6143a8565b825182111561411a57600080fd5b8460200151828561412b91906151cf565b11156141605761415f8560026141508860200151888761414b91906151cf565b6142d8565b61415a91906153c7565b6142f4565b5b60008086518051876020830101935080888701111561417f5787860182525b60208701925050505b602084106141c657805182526020826141a191906151cf565b91506020816141b091906151cf565b90506020846141bf9190615421565b9350614188565b60006001856020036101000a03905080198251168184511681811785525050508692505050949350505050565b6141fb6143a8565b8360200151831061422157614220846002866020015161421b91906153c7565b6142f4565b5b835180516020858301018481538186141561423d576001820183525b5050508390509392505050565b6142526143a8565b8460200151848361426391906151cf565b111561428b5761428a856002868561427b91906151cf565b61428591906153c7565b6142f4565b5b600060018361010061429d91906152a9565b6142a79190615421565b905085518386820101858319825116178152815185880111156142ca5784870182525b505085915050949350505050565b6000818311156142ea578290506142ee565b8190505b92915050565b6000826000015190506143078383613d0d565b506143128382613efc565b50505050565b604051806101000160405280600890602082028036833780820191505090505090565b6040518060a0016040528060008019168152602001600073ffffffffffffffffffffffffffffffffffffffff16815260200160007bffffffffffffffffffffffffffffffffffffffffffffffffffffffff19168152602001600081526020016143a26143a8565b81525090565b604051806040016040528060608152602001600081525090565b60006143d56143d084615100565b6150db565b9050828152602081018484840111156143ed57600080fd5b6143f8848285615504565b509392505050565b60008135905061440f81615de5565b92915050565b60008151905061442481615dfc565b92915050565b60008135905061443981615e13565b92915050565b600082601f83011261445057600080fd5b81356144608482602086016143c2565b91505092915050565b60008135905061447881615e2a565b92915050565b60006020828403121561449057600080fd5b600061449e84828501614400565b91505092915050565b600080604083850312156144ba57600080fd5b60006144c885828601614400565b92505060206144d985828601614400565b9150509250929050565b6000806000606084860312156144f857600080fd5b600061450686828701614400565b935050602061451786828701614400565b925050604061452886828701614469565b9150509250925092565b6000806040838503121561454557600080fd5b600061455385828601614400565b925050602061456485828601614469565b9150509250929050565b60006020828403121561458057600080fd5b600061458e84828501614415565b91505092915050565b6000806000606084860312156145ac57600080fd5b60006145ba8682870161442a565b93505060206145cb86828701614400565b92505060406145dc86828701614469565b9150509250925092565b6000602082840312156145f857600080fd5b600082013567ffffffffffffffff81111561461257600080fd5b61461e8482850161443f565b91505092915050565b60006020828403121561463957600080fd5b600061464784828501614469565b91505092915050565b6000806040838503121561466357600080fd5b600061467185828601614469565b925050602061468285828601614400565b9150509250929050565b60006146988383614780565b60208301905092915050565b60006146b08383614bb0565b60208301905092915050565b6146c581615455565b82525050565b6146d48161514b565b6146de8184615191565b92506146e982615131565b8060005b8381101561471a578151614701878261468c565b965061470c83615177565b9250506001810190506146ed565b505050505050565b600061472d82615156565b614737818561519c565b93506147428361513b565b8060005b8381101561477357815161475a88826146a4565b975061476583615184565b925050600181019050614746565b5085935050505092915050565b61478981615467565b82525050565b61479881615467565b82525050565b6147a781615473565b82525050565b6147b68161547d565b82525050565b60006147c782615161565b6147d181856151ad565b93506147e1818560208601615513565b6147ea8161570d565b840191505092915050565b614806614801826154e0565b6155f2565b82525050565b60006148178261516c565b61482181856151be565b9350614831818560208601615513565b61483a8161570d565b840191505092915050565b60006148526023836151be565b915061485d82615738565b604082019050919050565b60006148756016836151be565b915061488082615787565b602082019050919050565b60006148986022836151be565b91506148a3826157b0565b604082019050919050565b60006148bb6027836151be565b91506148c6826157ff565b604082019050919050565b60006148de6022836151be565b91506148e98261584e565b604082019050919050565b60006149016030836151be565b915061490c8261589d565b604082019050919050565b60006149246023836151be565b915061492f826158ec565b604082019050919050565b6000614947601d836151be565b91506149528261593b565b602082019050919050565b600061496a6016836151be565b915061497582615964565b602082019050919050565b600061498d6026836151be565b91506149988261598d565b604082019050919050565b60006149b06019836151be565b91506149bb826159dc565b602082019050919050565b60006149d36013836151be565b91506149de82615a05565b602082019050919050565b60006149f6603d836151be565b9150614a0182615a2e565b604082019050919050565b6000614a19603c836151be565b9150614a2482615a7d565b604082019050919050565b6000614a3c6047836151be565b9150614a4782615acc565b606082019050919050565b6000614a5f6021836151be565b9150614a6a82615b41565b604082019050919050565b6000614a826025836151be565b9150614a8d82615b90565b604082019050919050565b6000614aa56019836151be565b9150614ab082615bdf565b602082019050919050565b6000614ac86019836151be565b9150614ad382615c08565b602082019050919050565b6000614aeb6024836151be565b9150614af682615c31565b604082019050919050565b6000614b0e6017836151be565b9150614b1982615c80565b602082019050919050565b6000614b316028836151be565b9150614b3c82615ca9565b604082019050919050565b6000614b546041836151be565b9150614b5f82615cf8565b606082019050919050565b6000614b776025836151be565b9150614b8282615d6d565b604082019050919050565b6000614b9a601f836151be565b9150614ba582615dbc565b602082019050919050565b614bb9816154c9565b82525050565b614bc8816154c9565b82525050565b614bdf614bda826154c9565b615616565b82525050565b614bee816154d3565b82525050565b6000614c0082856147f5565b601482019150614c108284614bce565b6020820191508190509392505050565b6000602082019050614c3560008301846146bc565b92915050565b600060e082019050614c50600083018a6146bc565b614c5d6020830189614bbf565b614c6a604083018861479e565b614c7760608301876147ad565b614c846080830186614bbf565b614c9160a0830185614bbf565b81810360c0830152614ca381846147bc565b905098975050505050505050565b6000606082019050614cc660008301866146bc565b614cd36020830185614bbf565b8181036040830152614ce581846147bc565b9050949350505050565b600061010082019050614d0560008301846146cb565b92915050565b60006020820190508181036000830152614d258184614722565b905092915050565b6000602082019050614d42600083018461478f565b92915050565b6000602082019050614d5d600083018461479e565b92915050565b60006020820190508181036000830152614d7d818461480c565b905092915050565b60006020820190508181036000830152614d9e81614845565b9050919050565b60006020820190508181036000830152614dbe81614868565b9050919050565b60006020820190508181036000830152614dde8161488b565b9050919050565b60006020820190508181036000830152614dfe816148ae565b9050919050565b60006020820190508181036000830152614e1e816148d1565b9050919050565b60006020820190508181036000830152614e3e816148f4565b9050919050565b60006020820190508181036000830152614e5e81614917565b9050919050565b60006020820190508181036000830152614e7e8161493a565b9050919050565b60006020820190508181036000830152614e9e8161495d565b9050919050565b60006020820190508181036000830152614ebe81614980565b9050919050565b60006020820190508181036000830152614ede816149a3565b9050919050565b60006020820190508181036000830152614efe816149c6565b9050919050565b60006020820190508181036000830152614f1e816149e9565b9050919050565b60006020820190508181036000830152614f3e81614a0c565b9050919050565b60006020820190508181036000830152614f5e81614a2f565b9050919050565b60006020820190508181036000830152614f7e81614a52565b9050919050565b60006020820190508181036000830152614f9e81614a75565b9050919050565b60006020820190508181036000830152614fbe81614a98565b9050919050565b60006020820190508181036000830152614fde81614abb565b9050919050565b60006020820190508181036000830152614ffe81614ade565b9050919050565b6000602082019050818103600083015261501e81614b01565b9050919050565b6000602082019050818103600083015261503e81614b24565b9050919050565b6000602082019050818103600083015261505e81614b47565b9050919050565b6000602082019050818103600083015261507e81614b6a565b9050919050565b6000602082019050818103600083015261509e81614b8d565b9050919050565b60006020820190506150ba6000830184614bbf565b92915050565b60006020820190506150d56000830184614be5565b92915050565b60006150e56150f6565b90506150f18282615578565b919050565b6000604051905090565b600067ffffffffffffffff82111561511b5761511a6156de565b5b6151248261570d565b9050602081019050919050565b6000819050919050565b6000819050602082019050919050565b600060089050919050565b600081519050919050565b600081519050919050565b600081519050919050565b6000602082019050919050565b6000602082019050919050565b600081905092915050565b600082825260208201905092915050565b600082825260208201905092915050565b600082825260208201905092915050565b60006151da826154c9565b91506151e5836154c9565b9250827fffffffffffffffffffffffffffffffffffffffffffffffffffffffffffffffff0382111561521a57615219615651565b5b828201905092915050565b6000615230826154c9565b915061523b836154c9565b92508261524b5761524a615680565b5b828204905092915050565b6000808291508390505b60018511156152a05780860481111561527c5761527b615651565b5b600185161561528b5780820291505b80810290506152998561572b565b9450615260565b94509492505050565b60006152b4826154c9565b91506152bf836154c9565b92506152ec7fffffffffffffffffffffffffffffffffffffffffffffffffffffffffffffffff84846152f4565b905092915050565b60008261530457600190506153c0565b8161531257600090506153c0565b8160018114615328576002811461533257615361565b60019150506153c0565b60ff84111561534457615343615651565b5b8360020a91508482111561535b5761535a615651565b5b506153c0565b5060208310610133831016604e8410600b84101617156153965782820a90508381111561539157615390615651565b5b6153c0565b6153a38484846001615256565b925090508184048111156153ba576153b9615651565b5b81810290505b9392505050565b60006153d2826154c9565b91506153dd836154c9565b9250817fffffffffffffffffffffffffffffffffffffffffffffffffffffffffffffffff048311821515161561541657615415615651565b5b828202905092915050565b600061542c826154c9565b9150615437836154c9565b92508282101561544a57615449615651565b5b828203905092915050565b6000615460826154a9565b9050919050565b60008115159050919050565b6000819050919050565b60007fffffffff0000000000000000000000000000000000000000000000000000000082169050919050565b600073ffffffffffffffffffffffffffffffffffffffff82169050919050565b6000819050919050565b600060ff82169050919050565b60006154eb826154f2565b9050919050565b60006154fd826154a9565b9050919050565b82818337600083830152505050565b60005b83811015615531578082015181840152602081019050615516565b83811115615540576000848401525b50505050565b6000600282049050600182168061555e57607f821691505b60208210811415615572576155716156af565b5b50919050565b6155818261570d565b810181811067ffffffffffffffff821117156155a05761559f6156de565b5b80604052505050565b60006155b4826154c9565b91507fffffffffffffffffffffffffffffffffffffffffffffffffffffffffffffffff8214156155e7576155e6615651565b5b600182019050919050565b60006155fd82615604565b9050919050565b600061560f8261571e565b9050919050565b6000819050919050565b600061562b826154c9565b9150615636836154c9565b92508261564657615645615680565b5b828206905092915050565b7f4e487b7100000000000000000000000000000000000000000000000000000000600052601160045260246000fd5b7f4e487b7100000000000000000000000000000000000000000000000000000000600052601260045260246000fd5b7f4e487b7100000000000000000000000000000000000000000000000000000000600052602260045260246000fd5b7f4e487b7100000000000000000000000000000000000000000000000000000000600052604160045260246000fd5b6000601f19601f8301169050919050565b60008160601b9050919050565b60008160011c9050919050565b7f45524332303a207472616e7366657220746f20746865207a65726f206164647260008201527f6573730000000000000000000000000000000000000000000000000000000000602082015250565b7f4d7573742062652070726f706f736564206f776e657200000000000000000000600082015250565b7f45524332303a206275726e20616d6f756e7420657863656564732062616c616e60008201527f6365000000000000000000000000000000000000000000000000000000000000602082015250565b7f4f6e6c7920746865206d616e616765722063616e2063616c6c2074686973206660008201527f756e6374696f6e00000000000000000000000000000000000000000000000000602082015250565b7f45524332303a20617070726f766520746f20746865207a65726f20616464726560008201527f7373000000000000000000000000000000000000000000000000000000000000602082015250565b7f596f7520616c7265616479206d696e74656420796f7572207761697420666f7260008201527f2074686973207361637269666963652100000000000000000000000000000000602082015250565b7f756e61626c6520746f207472616e73666572416e6443616c6c20746f206f726160008201527f636c650000000000000000000000000000000000000000000000000000000000602082015250565b7f45524332303a20696e73756666696369656e7420616c6c6f77616e6365000000600082015250565b7f4f6e6c792063616c6c61626c65206279206f776e657200000000000000000000600082015250565b7f45524332303a207472616e7366657220616d6f756e742065786365656473206260008201527f616c616e63650000000000000000000000000000000000000000000000000000602082015250565b7f536f6d657468696e672077656e742077726f6e67206865726500000000000000600082015250565b7f4d696e74696e67206973207374696c6c206f6e00000000000000000000000000600082015250565b7f4d696e74696e67205761697420686173206265656e207475726e6564206f666660008201527f2c20676f20636c61696d2074686520756e636c61696d65642057616974000000602082015250565b7f596f752077657265206e6f7420696e207468652073706563696669632073616360008201527f726966696365206f7220796f75206e65656420746f20636865636b2100000000602082015250565b7f596f752077657265206e6f7420696e207468697320736163726966696365206f60008201527f7220796f7520686176656e277420636865636b6564207468652064617461626160208201527f7365207965742100000000000000000000000000000000000000000000000000604082015250565b7f45524332303a206275726e2066726f6d20746865207a65726f2061646472657360008201527f7300000000000000000000000000000000000000000000000000000000000000602082015250565b7f45524332303a207472616e736665722066726f6d20746865207a65726f20616460008201527f6472657373000000000000000000000000000000000000000000000000000000602082015250565b7f6e6f7420616e2061636375726174652073616372696669636500000000000000600082015250565b7f4e6f7420616e2061636375726174652073616372696669636500000000000000600082015250565b7f45524332303a20617070726f76652066726f6d20746865207a65726f2061646460008201527f7265737300000000000000000000000000000000000000000000000000000000602082015250565b7f43616e6e6f74207472616e7366657220746f2073656c66000000000000000000600082015250565b7f536f75726365206d75737420626520746865206f7261636c65206f662074686560008201527f2072657175657374000000000000000000000000000000000000000000000000602082015250565b7f596f75206e6576657220636c61696d656420796f75722077616974206f72206160008201527f6c726561647920636c61696d65642074686520756e636c61696d65642077616960208201527f7400000000000000000000000000000000000000000000000000000000000000604082015250565b7f45524332303a2064656372656173656420616c6c6f77616e63652062656c6f7760008201527f207a65726f000000000000000000000000000000000000000000000000000000602082015250565b7f45524332303a206d696e7420746f20746865207a65726f206164647265737300600082015250565b615dee81615455565b8114615df957600080fd5b50565b615e0581615467565b8114615e1057600080fd5b50565b615e1c81615473565b8114615e2757600080fd5b50565b615e33816154c9565b8114615e3e57600080fd5b5056fea26469706673582212209750f269479be144f7e6f5ee1cc6ce0d6cc952a51f03c1e4793ef4e773b0ba0f64736f6c63430008040033",
	"linkReferences": {},
	"deployedLinkReferences": {}
}